:020000040000FA
:100000000C9462000C948A000C948A000C948A0070
:100010000C948A000C948A000C948A000C948A0038
:100020000C948A000C948A000C948A000C940C089E
:100030000C948A000C948A000C948A000C948A0018
:100040000C94A3060C948A000C948A000C948A00E9
:100050000C948A000C948A000C948A000C948A00F8
:100060000C94ED060C948A00000000002400270088
:100070002A0000000000250028002B0000000000DE
:1000800023002600290004040404040404040202DA
:100090000202020203030303030301020408102007
:1000A0004080010204081020010204081020000012
:1000B0000008000201000003040700000000000027
:1000C0000000E30811241FBECFEFD8E0DEBFCDBF94
:1000D00011E0A0E0B1E0EAEBFCE102C005900D9276
:1000E000A635B107D9F722E0A6E5B1E001C01D921F
:1000F000AC36B207E1F710E0C2E6D0E004C02197C9
:10010000FE010E94630CC136D107C9F70E941A098B
:100110000C945B0E0C940000833081F028F4813045
:1001200099F08230A9F008958730A9F08830C9F09D
:100130008430B1F4809180008F7D03C08091800075
:100140008F7780938000089584B58F7784BD08955C
:1001500084B58F7DFBCF8091B0008F778093B00006
:1001600008958091B0008F7DF9CFCF93DF93282F32
:1001700030E0F901E255FF4F8491F901E656FF4F57
:10018000D491F901EA57FF4FC491CC23A1F081111A
:100190000E948C00EC2FF0E0EE0FFF1FE458FF4FA1
:1001A000A591B491EC91ED2381E090E009F480E019
:1001B000DF91CF91089580E090E0FACF1F93CF9325
:1001C000DF93282F30E0F901E255FF4F8491F901C8
:1001D000E656FF4FD491F901EA57FF4FC491CC2363
:1001E000A9F0162F81110E948C00EC2FF0E0EE0F89
:1001F000FF1FEE58FF4FA591B4918FB7F894EC9183
:10020000111108C0D095DE23DC938FBFDF91CF9111
:100210001F910895DE2BF8CFCF93DF9390E0FC0180
:10022000E656FF4F24918A579F4FFC018491882303
:10023000D1F090E0880F991FFC01E859FF4FA5917C
:10024000B491FC01EE58FF4FC591D49161110EC0DD
:100250009FB7F8948C91E22FE0958E238C932881A0
:10026000E223E8839FBFDF91CF9108958FB7F89481
:10027000EC91E22BEC938FBFF6CF3FB7F8948091CF
:10028000370290913802A0913902B0913A0226B516
:10029000A89B05C02F3F19F00196A11DB11D3FBFBE
:1002A000BA2FA92F982F8827BC01CD01620F711D8D
:1002B000811D911D42E0660F771F881F991F4A9587
:1002C000D1F708958F929F92AF92BF92CF92DF9213
:1002D000EF92FF924B015C010E943D016B017C019A
:1002E0000E943D016C197D098E099F09683E73408B
:1002F00081059105A8F321E0821A9108A108B108AF
:1003000088EEC80E83E0D81EE11CF11C8114910414
:10031000A104B10429F7FF90EF90DF90CF90BF9038
:10032000AF909F908F90089508950895AF92BF92D7
:10033000CF92DF92EF92FF920F931F93CF93DF93B1
:100340006C017B018B01040F151FEB015E01AE18E0
:10035000BF08C017D10759F06991D601ED91FC9102
:100360000190F081E02DC6010995892B79F7C5012F
:10037000DF91CF911F910F91FF90EF90DF90CF9081
:10038000BF90AF9008952091E201260F3327331FCD
:1003900021323105ECF420910602FC0190E080E06E
:1003A000243069F082E00895A091E2012191AC012E
:1003B0004E535E4FA40FB52FB11D2C930196861797
:1003C00098F38091E201680F6093E20180E0089564
:1003D00081E008951092060281E080930802109255
:1003E000070261E082E10E94DE0061E083E10E9499
:1003F000DE00E9EBF0E080818E7F808380818D7F5D
:10040000808388E48093B80085E48093BC000895DD
:10041000CF93DF9391E09093C1018823B9F0C0910D
:10042000B800D091BA008091BC008A7B8093BC0058
:1004300060E082E10E94DE0060E083E10E94DE0075
:100440000E94EA01D093BA00C093B800DF91CF9127
:1004500008950895E091310280913002E81730F458
:10046000F0E0E456FE4F808190E008958FEF9FEF1B
:10047000089590913102809130022FEF3FEF98174D
:1004800048F4E92FF0E0E456FE4F208130E09F5F12
:1004900090933102C9010895809130029091310208
:1004A000891B990B0895CF92DF92EF92FF920F93E1
:1004B0001F93CF93DF937C01CB018A0120913E02F1
:1004C000222389F0EB016B01C40ED51ECC15DD058E
:1004D00069F06991D701ED91FC910190F081E02DD7
:1004E000C7010995F3CF642F0E94C301C801DF91B2
:1004F000CF911F910F91FF90EF90DF90CF900895D3
:10050000CF93DF931F92CDB7DEB7698320913E0270
:100510002223F9F020913B02203258F021E030E014
:10052000FC013383228390E080E00F90DF91CF9134
:10053000089580913C02E82FF0E0E458FE4F998145
:1005400090838F5F80933C0280933B0281E090E038
:10055000ECCF61E0CE0101960E94C301F7CFCF92AC
:10056000DF92EF92FF920F931F93CF93DF93D0917F
:100570003B0281E0D13208F09CC0C0913D020E9454
:100580003D016B017C018091060281116CC082E00B
:100590008093060281E0809308028FEF809305022A
:1005A00010922A02D0932902ACE7B1E0E9E0F2E030
:1005B00080E0D8138DC010922B0280912B02CC0FBB
:1005C000C82BC0932B0280910702813009F084C0B0
:1005D000109207020E943D016B017C0180912B0269
:1005E0008093BB008091BD019091BE01A091BF019D
:1005F000B091C001892B8A2B8B2BA1F00E943D0169
:100600000091BD011091BE012091BF013091C00148
:100610006C197D098E099F090617170728073907E6
:1006200008F442C08091BC0083FDD8CF85EC809354
:10063000BC000E943D016B017C018091060282306A
:1006400009F44CC0809105028F3F09F469C0809184
:100650000502803209F466C080910502803309F4F6
:1006600063C084E026C08091BD019091BE01A0913D
:10067000BF01B091C001892B8A2B8B2B09F483CF4A
:100680000E943D010091BD011091BE012091BF016A
:100690003091C0016C197D098E099F090617170753
:1006A0002807390708F06FCF8091BC010E9408022B
:1006B00085E010923C0210923B0210923E02DF91C4
:1006C000CF911F910F91FF90EF90DF90CF90089501
:1006D0009D9191938F5F6DCF85EEA9CF8091BD01E4
:1006E0009091BE01A091BF01B091C001892B8A2BCE
:1006F0008B2B09F4A2CF0E943D010091BD01109106
:10070000BE012091BF013091C0016C197D098E0995
:100710009F09061717072807390708F08ECFC4CF9F
:1007200080E0C7CF82E0C5CF83E0C3CFEF92FF92D6
:100730000F931F93CF93DF938C017B01DC011A96FB
:100740008C911A9791E090933E0280933D02109213
:100750003C0210923B021E968D919C91DC01ED9122
:10076000FC910190F081E02DDB016C910995CBE8C3
:10077000D1E0CE010197F1F7F80186859785DC017C
:10078000ED91FC910190F081E02DD70111966C91D3
:1007900009952197F1F7F80186859785DF91CF912B
:1007A0001F910F91FF90EF900C94AF02CF93DF93C6
:1007B00000D01F92CDB7DEB7611112C080681B82D6
:1007C00090E899838A83BE016F5F7F4F84E592E052
:1007D0000E9496030F900F900F90DF91CF91089594
:1007E000806CEDCFCF93DF9300D01F92CDB7DEB7F3
:1007F0001B8290E899838A83BE016F5F7F4F84E5F7
:1008000092E00E9496030F900F900F90DF91CF918E
:10081000089581E00E94F2038BE39FE10197F1F7D5
:1008200008951F93CF93DF93162FC4E5D2E0AE85D2
:10083000BF859B8521E020933E0290933D0210925C
:100840003C0210923B02ED91FC9111970190F081D6
:10085000E02D682FCD0109958E859F85DC01ED91F6
:10086000FC910190F081E02D612F09958E859F8587
:10087000DF91CF911F910C94AF02CF93DF9300D003
:100880001F92CDB7DEB71B8220E429836A83BE01A5
:100890006F5F7F4F0E94960381E090E00F900F9072
:1008A0000F90DF91CF910895089590E080E0089532
:1008B0008F929F92AF92BF92FF920F931F93CF930D
:1008C000DF93FC01F0808BE08F1508F44AC0828131
:1008D00008E512E0081B110987FD1395000F111F91
:1008E000000F111F8181C8E8D0E0C81BD10987FD26
:1008F000D395CC0FDD1FCC0FDD1F4E010D2E000C4C
:10090000AA08BB089801012E000C440B550B2819AE
:1009100039094A095B09DB010E94E70B24EB30E04F
:1009200040E050E00E94BD0B820E931EA41EB51E37
:100930008C169D062CF0E801801691060CF4E4015B
:100940002297CC0FDD1F2FB7F8948F2D90E0FC017C
:10095000EE0FFF1FE80FF91FE85AFE4FD283C18345
:100960002FBFDF91CF911F910F91FF90BF90AF905C
:100970009F908F9008951F93CF93DF93EC01162FD4
:1009800088818C3008F04EC061E0812F0E940C01FC
:100990008881282F30E0F901EE0FFF1FE20FF31FCF
:1009A000E85AFE4F1F736081607C612B608319825F
:1009B0001A822CE0622F0E94570C829FB0011124F2
:1009C00030E020E0AB01420F531FFA01EE0FFF1F92
:1009D000E40FF51FE85AFE4F908196FD16C02F5F79
:1009E0003F4F2C30310571F781110FC010928000FC
:1009F00082E0809381001092850010928400B19A69
:100A000080916F00826080936F00E8818E2F90E06C
:100A1000FC01EE0FFF1FE80FF91FE85AFE4F80811F
:100A2000806480838881DF91CF911F910895FC01BC
:100A300001900020E9F73197AF01481B590BBC0129
:100A400084E592E00C9496010F931F93CF93DF936C
:100A5000EC0188819981009759F02A813B81261702
:100A6000370730F081E0DF91CF911F910F9108950A
:100A70008B016F5F7F4F0E948E0D009759F0998315
:100A800088831B830A832C813D81232B59F7FC012A
:100A90001082E8CF80E0E7CFCF93DF93EC0188812D
:100AA0009981009711F00E94050D198218821D820C
:100AB0001C821B821A82DF91CF910895CF92DF9220
:100AC000EF92FF920F931F93CF93DF93CDB7DEB7D3
:100AD00062970FB6F894DEBF0FBECDBF8C01CB017D
:100AE000F8011182108213821282158214824AE068
:100AF0009E012F5F3F4F6901B9010E94880BF601EB
:100B000001900020E9F731977F01EC18FD08B7014B
:100B1000C8010E942405811112C0C8010E944C0521
:100B200062960FB6F894DEBF0FBECDBFDF91CF91B6
:100B30001F910F91FF90EF90DF90CF900895F801F3
:100B4000F582E482B601808191810E94540EE8CF43
:100B5000EF92FF920F931F93CF93DF938C017B0152
:100B6000FB0101900020E9F73197E61BF70BD1F06C
:100B7000DC011496CD91DC91CE0FDF1FBE010E94E7
:100B800024058823B9F0F801208131818481958181
:100B9000B701820F931F0E94540ED8011596DC9363
:100BA000CE931497C801DF91CF911F910F91FF90C1
:100BB000EF900895C8010E944C05F4CFFC0180819C
:100BC0009181009711F00C94050D0895EF92FF921A
:100BD0000F931F93CF93DF93EC01198218821B822E
:100BE0001A821D821C828617970719F1FB0100816A
:100BF000118101151105E9F0E480F580B7010E942B
:100C00002405811109C0CE01DF91CF911F910F9171
:100C1000FF90EF900C944C05FD82EC82B801888126
:100C20009981DF91CF911F910F91FF90EF900C94DC
:100C3000540EDF91CF911F910F91FF90EF90089587
:100C4000CF93DF93CDB7DEB72C970FB6F894DEBF06
:100C50000FBECDBF0E94090460E084E00E94D6036D
:100C600086E291E00E94170561E081E00E94D603D0
:100C70006091000170910101CE0101960E945E0514
:100C8000BE016F5F7F4FCE0107960E94E6056FE2BF
:100C900071E0CE0107960E94A80561E371E00E9411
:100CA000A805FC01448155816081718184E592E051
:100CB0000E949601CE0107960E94DE05CE010196A4
:100CC0000E94DE052C960FB6F894DEBF0FBECDBF96
:100CD000DF91CF91089585ED8093BC008091BD0197
:100CE0009091BE01A091BF01B091C0010796A11DD6
:100CF000B11D23E0B695A795979587952A95D1F7CD
:100D00002091BC0024FD03C010920602089540917A
:100D1000BD015091BE016091BF017091C001452B92
:100D2000462B472B69F30097A105B10541F02AE254
:100D30002A95F1F700C00197A109B109E1CF80918F
:100D4000BC010C9408021F920F920FB60F9211244F
:100D50002F933F938F939F93AF93BF9380913302D1
:100D600090913402A0913502B09136023091320256
:100D700023E0230F2D3758F50196A11DB11D2093B7
:100D800032028093330290933402A0933502B093E1
:100D900036028091370290913802A0913902B091C9
:100DA0003A020196A11DB11D80933702909338023B
:100DB000A0933902B0933A02BF91AF919F918F9166
:100DC0003F912F910F900FBE0F901F90189526E81E
:100DD000230F0296A11DB11DD2CF1F920F920FB605
:100DE0000F9211242F933F934F935F936F937F93B1
:100DF0008F939F93AF93BF93EF93FF938091B9002D
:100E0000887F803609F44AC0F0F5883209F4A7C01B
:100E100018F5803109F49BC0B8F4882309F4F9C0AF
:100E2000883009F494C0FF91EF91BF91AF919F91E9
:100E30008F917F916F915F914F913F912F910F9083
:100E40000FBE0F901F901895883109F488C080322A
:100E500051F78093050214C0803409F49DC040F41A
:100E60008033B9F38833F9F68093050285ECB0C07E
:100E7000803509F485C0883509F496C0883499F620
:100E80000E946B06D0CF883909F48CC038F58837BA
:100E900029F050F4883611F0803729F683E08093EA
:100EA00006021092040257C0883809F47BC08039CA
:100EB00019F0803809F0B7CF80910402803208F031
:100EC00071C0E091040281E08E0F80930402809152
:100ED000BB00F0E0EC51FE4F80833DC0803B39F019
:100EE000E0F4803A09F479C0883A09F09CCF84E0B4
:100EF000809306021092E3011092E201E0912E022B
:100F0000F0912F0209958091E20181110FC081E0DB
:100F10008093E2011092C20109C0803C09F4A6CF7F
:100F2000883C09F4A3CF883B09F07DCFE091E30131
:100F300081E08E0F8093E301F0E0EE53FE4F80815D
:100F40008093BB009091E3018091E20129C08091E0
:100F50002B028093BB0085EC8093BC0064CF909102
:100F60002A0280912902981758F5E0912A0281E01F
:100F70008E0F80932A02F0E0E75FFD4F8081E9CF7A
:100F8000E0912A0281E08E0F80932A028091BB00BB
:100F9000F0E0E75FFD4F808390912A028091290263
:100FA0009817C8F285E8D8CFE0912A0281E08E0F29
:100FB00080932A028091BB00F0E0E75FFD4F8083C1
:100FC0008091080281115CCF81E08093070284EA5E
:100FD0008093BC001092060226CF85EC8093BC0063
:100FE0001092060280910402803230F4E0910402F3
:100FF000F0E0EC51FE4F10826091040270E0E0914D
:101000002C02F0912D0284EE91E0099510920402D9
:101010000ACF1092050234CF1F920F920FB60F9293
:1010200011242F933F934F935F936F937F938F93ED
:101030009F93AF93BF93CF93DF93EF93FF938091F1
:101040005601C0915701D0E087FF24C0109285005F
:1010500010928400809156018F5F80935601809199
:101060005601082E000C990B8C179D0724F48091D3
:1010700056018C30C4F180918400909185000496D3
:1010800080349C4908F47AC0809184009091850056
:10109000049676C080915601082E000C990B8C178F
:1010A0009D07C4F6E09156018E2FEE0F990BFC01BF
:1010B000EE0FFF1FE80FF91FE85AFE4F808186FFF1
:1010C000C9CFE09156018E2FEE0F990BFC01EE0F68
:1010D000FF1FE80FF91FE85AFE4F808160E08F7311
:1010E0000E94DE00B7CF2091840030918500E0910E
:1010F00056018E2FEE0F990BFC01EE0FFF1FE80F2C
:10110000F91FE85AFE4F81819281820F931F9093BD
:10111000890080938800E09156018E2FEE0F990B85
:10112000FC01EE0FFF1FE80FF91FE85AFE4F808108
:1011300086FF11C0E09156018E2FEE0F990BFC0136
:10114000EE0FFF1FE80FF91FE85AFE4F808161E0A4
:101150008F730E94DE00FF91EF91DF91CF91BF91DD
:10116000AF919F918F917F916F915F914F913F913F
:101170002F910F900FBE0F901F90189580E49CE95F
:1011800090938900809388008FEF80935601E3CF7E
:10119000FC01909157019C3098F481E0890F809375
:1011A00057019083892F90E0FC01EE0FFF1FE80F9D
:1011B000F91FE85AFE4F88EB9BE0928381830895E4
:1011C0008FEF80830895A8E4B2E013961C921E92DC
:1011D000129748EE53E060E070E014964D935D93F3
:1011E0006D937C9317978CE091E011969C938E936E
:1011F000E4E5F2E0138212828EE191E09183808334
:10120000108A118A128A138A8EE3828787E2838783
:1012100080E1848782E08587B787A68785E492E0AE
:101220000E94C80882E492E00E94C8088FE392E01E
:101230000C94C808CF93DF93CDB7DEB72C970FB6C9
:10124000F894DEBF0FBECDBF789484B5826084BDB4
:1012500084B5816084BD85B5826085BD85B58160BA
:1012600085BD80916E00816080936E001092810038
:1012700080918100826080938100809181008160F3
:1012800080938100809180008160809380008091B4
:10129000B10084608093B1008091B0008160809340
:1012A000B00080917A00846080937A0080917A0007
:1012B000826080937A0080917A00816080937A00C6
:1012C00080917A00806880937A001092C10060E07B
:1012D00081E00E940C0160E082E00E940C0160E06D
:1012E00088E00E940C0160E089E00E940C0160E04F
:1012F0008BE00E940C0161E083E00E940C0161E040
:1013000084E00E940C0161E085E00E940C0161E034
:1013100086E00E940C0161E08AE00E940C0161E01D
:101320008CE00E940C0166E070E085E492E00E948F
:10133000BB046AE070E082E492E00E94BB046CE0CF
:1013400070E08FE392E00E94BB0460E083E00E94C3
:10135000DE0060E084E00E94DE0061E085E00E9443
:10136000DE0064EB70E085E492E00E94580470E0D7
:1013700060E082E492E00E94580470E060E08FE355
:1013800092E00E94580410923102109230021092A2
:101390003C0210923B020E94EA0184E991E09093A2
:1013A0002F0280932E0285E991E090932D02809385
:1013B0002C0280915F02803609F001C184E08093A5
:1013C000640283E08093650282E0809366028093EA
:1013D00067021092580280916102823018F098E002
:1013E0009093580280935C0210925D0262E370E079
:1013F00080E090E00E9462018091580280620E9429
:10140000F20365E070E080E090E00E94620180916C
:10141000580280620E94F20365E070E080E090E094
:101420000E9462018091580280620E94F20384E06F
:10143000809359028CE00E94F2030E94090482E02A
:1014400080935A0286E00E94F20380915F02803608
:1014500009F0D6C060E080E00E9411046FEF88E0E0
:101460000E94110460E281E00E94110480916402F4
:1014700090915F02903309F0E6C060EC0E94110485
:1014800060EC809165020E94110460EC809166021C
:101490000E94110460E084E00E94D60386E291E09D
:1014A0000E94170561E081E00E94D603609100016F
:1014B00070910101CE0107960E945E05BE01695F31
:1014C0007F4FCE0101960E94E6056FE271E0CE01EA
:1014D00001960E94A80561E371E00E94A805FC0145
:1014E000448155816081718184E592E00E9496017A
:1014F000CE0101960E94DE05CE0107960E94DE0510
:101500006AE070E080E090E00E94620180E0E82EF6
:1015100080E0F82E81E00E94B500892B09F0A8C078
:1015200061E083E00E94DE0060E084E00E94DE0073
:1015300060E085E00E94DE0070E060E085E492E01B
:101540000E94580488E00E94B500892B09F0A5C0CC
:101550008091000190910101181619060CF09DC0B0
:1015600064EB70E082E492E00E9458048BE00E94F9
:10157000B500892BE9F464EB70E08FE392E00E9400
:10158000580480910001909101010196909301010E
:10159000809300010E94200668EE73E080E090E0F6
:1015A0000E94620170E060E08FE392E00E945804C4
:1015B000E114F10409F4AECF0E940000ABCF8033F8
:1015C00041F486E08093640287E08093650288E0BE
:1015D000FCCE8B3641F486E08093640285E08093F4
:1015E000650284E0F2CE8D3209F0F3CE81E0809383
:1015F000640292E09093650293E090936602E7CED6
:10160000803359F460E081E00E9411046FEF82E0C2
:101610000E94110465E184E027CF8B3609F026CFC4
:1016200060E08FE20E94110460E280E00E941104F9
:1016300060E081E00E94110461E082E00E941104F8
:1016400064E083E011CF6FEF0E9411046FEF80918F
:1016500065020E9411046FEF809166020E941104DE
:1016600080915F028B3609F015CF6FEF87E010CFC6
:1016700082E00E94B500892B09F064CF60E083E02E
:101680000E94DE0060E084E00E94DE0061E085E010
:101690000E94DE0064EB70E051CF89E00E94B5004B
:1016A000892B09F063CF0091000110910101101600
:1016B00011060CF05BCF70E060E082E492E00E94E3
:1016C00058040150110910930101009300010130E9
:1016D000110549F40E94200668EE73E080E090E076
:1016E0000E94620143CF012BB9F70E94090460E018
:1016F00085E00E94D6038EE391E00E94170561E029
:1017000081E00E94D60385E491E00E941705E4CFB2
:10171000BB274A3031F4992322F4BDE2909581959C
:101720009F4F0C94940BBB27FB015527AA27880FCA
:10173000991FAA1FA41710F0A41B83955051B9F745
:10174000A05DAA3308F0A95DA193009779F7B111C4
:10175000B1931192CB010C94AD0BDC01FC01672F0E
:1017600071917723E1F7329704C07C916D93708378
:101770006291AE17BF07C8F30895052E97FB1EF4BC
:1017800000940E94D40B57FD07D00E94260C07FC42
:1017900003D04EF40C94D40B509540953095219580
:1017A0003F4F4F4F5F4F089590958095709561958D
:1017B0007F4F8F4F9F4F08950E94480CA59F900D1B
:1017C000B49F900DA49F800D911D11240895B7FF23
:1017D0000C94DC0B0E94DC0B821B930B08952F9260
:1017E0003F924F925F926F927F928F929F92AF92B1
:1017F000BF92CF92DF92EF92FF920F931F93CF93FE
:10180000DF93CDB7DEB7CA1BDB0B0FB6F894DEBF94
:101810000FBECDBF09942A88398848885F846E84BA
:101820007D848C849B84AA84B984C884DF80EE8004
:10183000FD800C811B81AA81B981CE0FD11D0FB60D
:10184000F894DEBF0FBECDBFED010895A1E21A2EC0
:10185000AA1BBB1BFD010DC0AA1FBB1FEE1FFF1F54
:10186000A217B307E407F50720F0A21BB30BE40BA4
:10187000F50B661F771F881F991F1A9469F76095EB
:101880007095809590959B01AC01BD01CF010895A5
:10189000A29FB001B39FC001A39F700D811D1124B1
:1018A000911DB29F700D811D1124911D0895991BEA
:1018B00079E004C0991F961708F0961B881F7A9547
:1018C000C9F780950895EE0FFF1F0590F491E02D64
:1018D00009940F931F93CF93DF938230910510F4F7
:1018E00082E090E0E0916A02F0916B0230E020E04B
:1018F000B0E0A0E0309799F42115310509F44AC011
:10190000281B390B24303105D8F58A819B8161155C
:10191000710589F1FB0193838283FE0111C040812F
:1019200051810281138148175907E0F04817590780
:1019300099F4109761F012960C93129713961C93DA
:101940003296CF01DF91CF911F910F9108950093AF
:101950006A0210936B02F4CF2115310551F0421742
:10196000530738F0A901DB019A01BD01DF01F8013D
:10197000C1CFEF01F9CF90936B0280936A02CDCF74
:10198000FE01E20FF31F81939193225031093983B5
:101990002883D7CF2091680230916902232B41F42C
:1019A000209104013091050130936902209368026F
:1019B00020910201309103012115310541F42DB729
:1019C0003EB74091060150910701241B350BE09171
:1019D0006802F0916902E217F307A0F42E1B3F0B97
:1019E0002817390778F0AC014E5F5F4F2417350791
:1019F00048F04E0F5F1F5093690240936802819335
:101A000091939FCFF0E0E0E09CCFCF93DF930097DE
:101A1000E9F0FC01329713821282A0916A02B09120
:101A20006B02ED0130E020E01097A1F420813181BC
:101A3000820F931F2091680230916902281739079D
:101A400009F061C0F0936902E0936802DF91CF91E1
:101A50000895EA01CE17DF07E8F54A815B819E0110
:101A600041155105B1F7E901FB83EA834991599189
:101A7000C40FD51FEC17FD0761F480819181029698
:101A8000840F951FE90199838883828193819B83C9
:101A90008A83F0E0E0E012968D919C911397009775
:101AA000B9F52D913C911197CD010296820F931FAC
:101AB00020916802309169022817390739F630976A
:101AC00051F510926B0210926A02B0936902A093D2
:101AD0006802BCCFD383C28340815181840F951F9C
:101AE000C817D90761F44E5F5F4F88819981480F0D
:101AF000591F518340838A819B819383828321155F
:101B0000310509F0B0CFF0936B02E0936A029ECFEB
:101B1000FD01DC01C0CF13821282D7CFB0E0A0E07C
:101B2000E4E9FDE00C94F10B8C01009751F4CB013A
:101B30000E94690C8C01C801CDB7DEB7E0E10C94BE
:101B40000D0CFC01E60FF71F9C0122503109E21732
:101B5000F30708F49DC0D901CD91DC911197C61708
:101B6000D70798F0C530D10530F3CE01049786171A
:101B7000970708F3C61BD70B2297C193D1936D9398
:101B80007C93CF010E94050DD6CF5B01AC1ABD0A34
:101B90004C018C0E9D1EA0916A02B0916B02512CDB
:101BA000412CF12CE12C109731F580916802909135
:101BB00069028815990509F05CC04616570608F0B9
:101BC00058C08091020190910301009741F48DB7B4
:101BD0009EB74091060150910701841B950BE817B1
:101BE000F90708F055C0F0936902E0936802F90123
:101BF00071836083A0CF8D919C91119712966C9008
:101C0000129713967C901397A815B90559F56C0196
:101C100042E0C40ED11CCA14DB0420F1AC014A1905
:101C20005B09DA011296159780F062827382518304
:101C30004083D9016D937C93E114F10471F0D701D5
:101C40001396FC93EE93129776CF22968C0F9D1FDE
:101C5000F90191838083F301EFCFF0936B02E0935E
:101C60006A0269CF4816590608F42C017D01D30198
:101C70009ACFCB010E94690C7C01009749F0AE011C
:101C8000B8010E944B0EC8010E94050D870153CF79
:101C900010E000E050CFFB01DC0102C001900D928A
:101CA00041505040D8F70895FB01DC0101900D929E
:101CB0000020E1F70895F894FFCF020000006C02C5
:101CC00080000000000080025302550429024C02EB
:101CD00039022A02000000003D0496015504540414
:101CE00057656C636F6D6521002000656D707479B8
:101CF00020706C6163657300536F727279210050BC
:101D000061726B696E672069732062757379000078
:107E0000112484B714BE81FFF0D085E080938100F7
:107E100082E08093C00088E18093C10086E0809377
:107E2000C20080E18093C4008EE0C9D0259A86E02C
:107E300020E33CEF91E0309385002093840096BBD3
:107E4000B09BFECF1D9AA8958150A9F7CC24DD24C4
:107E500088248394B5E0AB2EA1E19A2EF3E0BF2EE7
:107E6000A2D0813461F49FD0082FAFD0023811F036
:107E7000013811F484E001C083E08DD089C08234E0
:107E800011F484E103C0853419F485E0A6D080C0E4
:107E9000853579F488D0E82EFF2485D0082F10E0AE
:107EA000102F00270E291F29000F111F8ED06801E7
:107EB0006FC0863521F484E090D080E0DECF843638
:107EC00009F040C070D06FD0082F6DD080E0C81688
:107ED00080E7D80618F4F601B7BEE895C0E0D1E017
:107EE00062D089930C17E1F7F0E0CF16F0E7DF06D8
:107EF00018F0F601B7BEE89568D007B600FCFDCFD4
:107F0000A601A0E0B1E02C9130E011968C91119780
:107F100090E0982F8827822B932B1296FA010C0160
:107F200087BEE89511244E5F5F4FF1E0A038BF0790
:107F300051F7F601A7BEE89507B600FCFDCF97BE46
:107F4000E89526C08437B1F42ED02DD0F82E2BD052
:107F50003CD0F601EF2C8F010F5F1F4F84911BD097
:107F6000EA94F801C1F70894C11CD11CFA94CF0C13
:107F7000D11C0EC0853739F428D08EE10CD085E9AC
:107F80000AD08FE07ACF813511F488E018D01DD067
:107F900080E101D065CF982F8091C00085FFFCCF94
:107FA0009093C60008958091C00087FFFCCF809118
:107FB000C00084FD01C0A8958091C6000895E0E648
:107FC000F0E098E1908380830895EDDF803219F02E
:107FD00088E0F5DFFFCF84E1DECF1F93182FE3DFCA
:107FE0001150E9F7F2DF1F91089580E0E8DFEE27F6
:047FF000FF270994CA
:027FFE00040479
:00000001FF
