:020000040000FA
:100000000C9462000C948A000C948A000C948A0070
:100010000C948A000C948A000C948A000C948A0038
:100020000C948A000C948A000C948A000C948A0028
:100030000C948A000C948A000C948A000C948A0018
:100040000C945C030C948A000C94CC030C94A603CF
:100050000C948A000C948A000C948A000C948A00F8
:100060000C948A000C948A000000000024002700F1
:100070002A0000000000250028002B0000000000DE
:1000800023002600290004040404040404040202DA
:100090000202020203030303030301020408102007
:1000A0004080010204081020010204081020000012
:1000B0000008000201000003040700000000000027
:1000C0000000050711241FBECFEFD8E0DEBFCDBF73
:1000D00011E0A0E0B1E0E8E0FFE002C005900D9281
:1000E000A636B107D9F722E0A6E6B1E001C01D921D
:1000F000AD30B207E1F710E0C2E6D0E004C02197CE
:10010000FE010E947C07C136D107C9F70E94FE0399
:100110000C9482070C940000FC01538D448D252F14
:1001200030E0842F90E0821B930B541710F0CF9691
:10013000089501970895FC01918D828D981761F0C3
:10014000A28DAE0FBF2FB11D5D968C91928D9F5FDA
:100150009F73928F90E008958FEF9FEF0895FC01B9
:10016000918D828D981731F0828DE80FF11D858D6C
:1001700090E008958FEF9FEF0895FC01918D228DFF
:10018000892F90E0805C9F4F821B91098F73992784
:100190000895FC01A48DA80FB92FB11DA35ABF4F1C
:1001A0002C91848D90E001968F739927848FA68976
:1001B000B7892C93A089B1898C91837080648C93CA
:1001C000938D848D981306C00288F389E02D808179
:1001D0008F7D80830895EF92FF920F931F93CF93AB
:1001E000DF93EC0181E0888F9B8D8C8D98131AC072
:1001F000E889F989808185FF15C09FB7F894EE8959
:10020000FF896083E889F9898081837080648083B5
:100210009FBF81E090E0DF91CF911F910F91FF9000
:10022000EF900895F62E0B8D10E00F5F1F4F0F73A8
:100230001127E02E8C8D8E110CC00FB607FCFACF63
:10024000E889F989808185FFF5CFCE010E94C90038
:10025000F1CFEB8DEC0FFD2FF11DE35AFF4FF08234
:100260009FB7F8940B8FEA89FB8980818062CFCF9A
:10027000CF93DF93EC01888D8823B9F0AA89BB89DD
:10028000E889F9898C9185FD03C0808186FD0DC0C8
:100290000FB607FCF7CF8C9185FFF2CF808185FFE9
:1002A000EDCFCE010E94C900E9CFDF91CF91089533
:1002B00080E791E00E94BD0021E0892B09F420E055
:1002C000822F089580E090E0892B29F00E94580148
:1002D00081110C9400000895833081F028F481305E
:1002E00099F08230A9F008958730A9F08830C9F0DC
:1002F0008430B1F4809180008F7D03C080918000B4
:100300008F7780938000089584B58F7784BD08959A
:1003100084B58F7DFBCF8091B0008F778093B00044
:1003200008958091B0008F7DF9CFCF93DF93282F70
:1003300030E0F901E255FF4F8491F901E656FF4F95
:10034000D491F901EA57FF4FC491CC23A1F0811158
:100350000E946C01EC2FF0E0EE0FFF1FE458FF4FFE
:10036000A591B491EC91ED2381E090E009F480E057
:10037000DF91CF91089580E090E0FACF1F93CF9363
:10038000DF93282F30E0F901E255FF4F8491F90106
:10039000E656FF4FD491F901EA57FF4FC491CC23A1
:1003A000A9F0162F81110E946C01EC2FF0E0EE0FE6
:1003B000FF1FEE58FF4FA591B4918FB7F894EC91C1
:1003C000111108C0D095DE23DC938FBFDF91CF9150
:1003D0001F910895DE2BF8CFBF92CF92DF92EF925C
:1003E000FF920F931F93CF93DF93EC016B0103E117
:1003F00011E0780161E0F70181917F010E94BE0167
:10040000FBE1EF16F1E0FF06A9F7CF59DE4FB88008
:1004100061E08B2D0E94BE0187E08C9D70018D9D57
:10042000F00C1124D0E0C0E0FE01EE0DFF1DE55EF2
:10043000FE4F6081F80181918F010E94BE012196DB
:10044000C730D10589F761E080E00E94BE018BE9E9
:100450009FE00197F1F760E08B2DDF91CF911F9125
:100460000F91FF90EF90DF90CF90BF900C94BE0162
:10047000CF93DF9390E0FC01E656FF4F24918A571B
:100480009F4FFC0184918823D1F090E0880F991F41
:10049000FC01E859FF4FA591B491FC01EE58FF4FC4
:1004A000C591D49161110EC09FB7F8948C91E22F41
:1004B000E0958E238C932881E223E8839FBFDF9110
:1004C000CF9108958FB7F894EC91E22BEC938FBF06
:1004D000F6CF3FB7F89480916C0190916D01A09197
:1004E0006E01B0916F0126B5A89B05C02F3F19F092
:1004F0000196A11DB11D3FBFBA2FA92F982F8827A4
:10050000BC01CD01620F711D811D911D42E0660F7E
:10051000771F881F991F4A95D1F708958F929F9250
:10052000AF92BF92CF92DF92EF92FF924B015C01AC
:100530000E9469026B017C010E9469026C197D09AD
:100540008E099F09683E734081059105A8F328EE46
:10055000C20E23E0D21EE11CF11C8A9489288A284D
:100560008B2829F0812C912C54018394E5CFFF90A6
:10057000EF90DF90CF90BF90AF909F908F900895B5
:10058000AF92BF92CF92DF92EF92FF920F931F93A1
:10059000CF93DF936C017B018B01040F151FEB01DF
:1005A0005E01AE18BF08C017D10759F06991D60196
:1005B000ED91FC910190F081E02DC6010995892B08
:1005C00079F7C501DF91CF911F910F91FF90EF90C7
:1005D000DF90CF90BF90AF9008958F929F92AF928F
:1005E000BF920F931F93CF93DF93CDB7DEB7A19741
:1005F0000FB6F894DEBF0FBECDBF19A2423008F48B
:100600004AE08E010F5D1F4F842E912CB12CA12C3E
:10061000A50194010E944607E62FB901CA01EA30FC
:1006200044F5E05DD801EE938D01232B242B252B7F
:1006300079F790E080E0109769F0FD0101900020CB
:10064000E9F73197AF014A1B5B0BBD0180E791E0F1
:100650000E94C002A1960FB6F894DEBF0FBECDBFB8
:10066000DF91CF911F910F91BF90AF909F908F908E
:100670000895E95CD7CFCF92DF92EF92FF92CF93AC
:10068000DF936B017C016DE280E791E00E94EB005B
:10069000EC0166277727CB016C197D098E099F092C
:1006A0004AE00E94ED028C0F9D1FDF91CF91FF90D9
:1006B000EF90DF90CF9008951F920F920FB60F9298
:1006C00011242F933F938F939F93AF93BF93809168
:1006D000680190916901A0916A01B0916B0130911C
:1006E000670123E0230F2D3758F50196A11DB11D99
:1006F000209367018093680190936901A0936A0138
:10070000B0936B0180916C0190916D01A0916E018D
:10071000B0916F010196A11DB11D80936C01909362
:100720006D01A0936E01B0936F01BF91AF919F9146
:100730008F913F912F910F900FBE0F901F901895A2
:1007400026E8230F0296A11DB11DD2CF1F920F9252
:100750000FB60F9211242F933F934F935F936F9394
:100760007F938F939F93AF93BF93EF93FF9380E714
:1007700091E00E94C900FF91EF91BF91AF919F91CD
:100780008F917F916F915F914F913F912F910F903A
:100790000FBE0F901F9018951F920F920FB60F92D9
:1007A00011242F938F939F93EF93FF93E0918001F8
:1007B000F09181018081E0918601F091870182FDB5
:1007C0001BC09081809189018F5F8F7320918A0176
:1007D000821741F0E0918901F0E0E059FE4F958FDA
:1007E00080938901FF91EF919F918F912F910F90AD
:1007F0000FBE0F901F9018958081F4CF789484B528
:10080000826084BD84B5816084BD85B5826085BD0C
:1008100085B5816085BD80916E00816080936E009A
:10082000109281008091810082608093810080918C
:10083000810081608093810080918000816080933D
:1008400080008091B10084608093B1008091B000FD
:1008500081608093B00080917A00846080937A00F8
:1008600080917A00826080937A0080917A00816022
:1008700080937A0080917A00806880937A00109249
:10088000C100C3E1D1E061E089910E94380281E0BA
:10089000CD31D807C1F761E088E00E94380261E0FD
:1008A00089E00E94380260E088E00E94BE0160E0BA
:1008B00089E00E94BE0161E08EE00E94380261E0A2
:1008C0008FE00E94380261E080E10E94380261E01E
:1008D00081E10E94380261E082E10E94380261E019
:1008E00083E10E94380260E08AE00E94380260E002
:1008F0008BE00E94380260E08CE00E94380260E0E9
:100900008DE00E94380261E08EE00E94BE0160E04E
:100910008FE00E94BE0160E080E10E94BE0160E0C5
:1009200081E10E94BE0160E082E10E94BE0161E0BF
:1009300083E10E94BE010AE010E090E0E92E90E021
:10094000F92ECFE0D0E0CE01B8010E9432075B0162
:100950006C018FE0882E912CB60181E090E00E941E
:10096000EC01B50190E080E00E94EC0162E070E0F3
:1009700080E090E00E948E0281E0881A910861F781
:10098000B501BB0C880B990B4AE00E94ED02B60141
:10099000DD0C880B990B4AE00E94ED0242E050E02A
:1009A00063E671E080E791E00E94C002209709F0C1
:1009B00010C28AE00E949501892B09F0A0C18BE04A
:1009C0000E949501892B09F09AC18CE00E94950143
:1009D000892B09F094C18DE00E949501892B09F0C3
:1009E0008EC18EE00E949501019709F074C060E00D
:1009F0008EE00E94BE0160E08FE00E94BE0161E0D7
:100A000080E10E94BE0181E10E949501682F81E191
:100A10000E94BE0182E10E949501682F82E10E943E
:100A2000BE0183E10E949501682F83E10E94BE010F
:100A300081E10E949501019709F05DC060E081E1CC
:100A40000E94BE0160E082E10E94BE0161E083E19C
:100A50000E94BE018EE00E949501682F8EE00E94E8
:100A6000BE018FE00E949501682F8FE00E94BE01B9
:100A700080E10E949501682F80E10E94BE018FE015
:100A80000E949501019709F446C08FE00E949501EC
:100A9000019709F0B3C182E10E949501019709F025
:100AA000ADC1809100018111A9C161E08EE00E9479
:100AB000BE0160E08FE00E94BE0160E080E10E9424
:100AC000BE0160E081E10E94BE0160E082E10E941F
:100AD000BE0161E040C080E10E949501019709F0EC
:100AE000A7CF61E08EE00E94BE0160E08FE00E942F
:100AF000BE0160E085CF83E10E949501019709F076
:100B0000BECF61E081E10E94BE0160E082E10E940F
:100B1000BE0160E09CCF82E10E949501019709F03F
:100B2000B4CF80910001882309F4AFCF60E08EE05C
:100B30000E94BE0160E08FE00E94BE0161E080E1A2
:100B40000E94BE0161E081E10E94BE0160E082E19D
:100B50000E94BE0160E083E10E94BE013AC18FE0C5
:100B60000E949501019721F480910001811130C00C
:100B70008FE00E949501019709F44CC080E10E942A
:100B80009501019709F0FBC060E08EE00E94BE0174
:100B900061E08FE00E94BE0160E080E10E94BE0142
:100BA00081E10E949501682F81E10E94BE0182E1EE
:100BB0000E949501682F82E10E94BE0183E10E949C
:100BC0009501682F83E10E94BE0110920001D7C0F9
:100BD00060E08EE00E94BE0160E08FE00E94BE01F6
:100BE00061E080E10E94BE0181E10E949501682FD1
:100BF00081E10E94BE0182E10E949501682F82E19D
:100C00000E94BE0183E10E949501682F83E10E944A
:100C1000BE01B5C0809100018111B0CF61E08EE0CE
:100C20000E94BE0160E08FE00E94BE0160E0D9CF6B
:100C300082E10E949501019721F480916601811162
:100C400030C082E10E949501019709F44AC083E116
:100C50000E949501019709F0D1C060E081E10E94F6
:100C6000BE0161E082E10E94BE0160E083E10E947A
:100C7000BE018EE00E949501682F8EE00E94BE01A9
:100C80008FE00E949501682F8FE00E94BE0180E1F5
:100C90000E949501682F80E10E94BE0110926601BA
:100CA00098C060E081E10E94BE0160E082E10E94A4
:100CB000BE0161E083E10E94BE018EE00E949501C9
:100CC000682F8EE00E94BE018FE00E949501682F80
:100CD0008FE00E94BE0180E10E949501682F80E1B3
:100CE0003BCF809166018111B2CF61E081E10E942A
:100CF000BE0160E082E10E94BE0160E0DBCF8AE0DD
:100D00000E949501892B31F48BE00E949501892B7B
:100D100009F40CCF8CE00E949501892B31F48DE011
:100D20000E949501892B09F4C0CE8EE00E949501A6
:100D3000019709F014CF60E08EE00E94BE0161E0EF
:100D40008FE00E94BE0160E080E10E94BE0181E16F
:100D50000E949501682F81E10E94BE0182E10E94FC
:100D60009501682F82E10E94BE0183E10E949501F6
:100D7000682F83E10E94BE0181E08093000181E140
:100D80000E949501019709F053CF60E081E10E9434
:100D9000BE0161E082E10E94BE0160E083E10E9449
:100DA000BE018EE00E949501682F8EE00E94BE0178
:100DB0008FE00E949501682F8FE00E94BE0180E1C4
:100DC0000E949501682F80E10E94BE0181E080931E
:100DD000660161E070E080E090E00E948E02219761
:100DE00008F0B1CDE114F10409F4ABCD0E94580133
:100DF000882309F4A6CD0E940000A3CD61E070E035
:100E000080E090E00E948E02EDCFE0E7F1E01382F7
:100E1000128288EE93E0A0E0B0E084839583A683FD
:100E2000B78385E091E09183808385EC90E095879E
:100E3000848784EC90E09787868780EC90E0918BA4
:100E4000808B81EC90E0938B828B82EC90E0958B91
:100E5000848B86EC90E0978B868B118E128E138E8E
:100E6000148E089597FB072E16F4009407D077FD93
:100E700009D00E94680707FC05D03EF49095819543
:100E80009F4F0895709561957F4F0895A1E21A2EA6
:100E9000AA1BBB1BFD010DC0AA1FBB1FEE1FFF1F1E
:100EA000A217B307E407F50720F0A21BB30BE40B6E
:100EB000F50B661F771F881F991F1A9469F76095B5
:100EC0007095809590959B01AC01BD01CF0108956F
:100ED000AA1BBB1B51E107C0AA1FBB1FA617B70760
:100EE00010F0A61BB70B881F991F5A95A9F780957C
:100EF0009095BC01CD010895EE0FFF1F0590F49170
:100F0000E02D0994F894FFCF0100000000EB00C031
:100F1000028C003801BD009B00AF000102030405F4
:100F200006070000000000000001010000010101AF
:100F300001000001000001000000000001010001AB
:100F4000000001010000000100000100000001009C
:100F5000000000000000000101010100000000008D
:0E0F600000000000000001000008090D0A005A
:107E0000112484B714BE81FFF0D085E080938100F7
:107E100082E08093C00088E18093C10086E0809377
:107E2000C20080E18093C4008EE0C9D0259A86E02C
:107E300020E33CEF91E0309385002093840096BBD3
:107E4000B09BFECF1D9AA8958150A9F7CC24DD24C4
:107E500088248394B5E0AB2EA1E19A2EF3E0BF2EE7
:107E6000A2D0813461F49FD0082FAFD0023811F036
:107E7000013811F484E001C083E08DD089C08234E0
:107E800011F484E103C0853419F485E0A6D080C0E4
:107E9000853579F488D0E82EFF2485D0082F10E0AE
:107EA000102F00270E291F29000F111F8ED06801E7
:107EB0006FC0863521F484E090D080E0DECF843638
:107EC00009F040C070D06FD0082F6DD080E0C81688
:107ED00080E7D80618F4F601B7BEE895C0E0D1E017
:107EE00062D089930C17E1F7F0E0CF16F0E7DF06D8
:107EF00018F0F601B7BEE89568D007B600FCFDCFD4
:107F0000A601A0E0B1E02C9130E011968C91119780
:107F100090E0982F8827822B932B1296FA010C0160
:107F200087BEE89511244E5F5F4FF1E0A038BF0790
:107F300051F7F601A7BEE89507B600FCFDCF97BE46
:107F4000E89526C08437B1F42ED02DD0F82E2BD052
:107F50003CD0F601EF2C8F010F5F1F4F84911BD097
:107F6000EA94F801C1F70894C11CD11CFA94CF0C13
:107F7000D11C0EC0853739F428D08EE10CD085E9AC
:107F80000AD08FE07ACF813511F488E018D01DD067
:107F900080E101D065CF982F8091C00085FFFCCF94
:107FA0009093C60008958091C00087FFFCCF809118
:107FB000C00084FD01C0A8958091C6000895E0E648
:107FC000F0E098E1908380830895EDDF803219F02E
:107FD00088E0F5DFFFCF84E1DECF1F93182FE3DFCA
:107FE0001150E9F7F2DF1F91089580E0E8DFEE27F6
:047FF000FF270994CA
:027FFE00040479
:00000001FF
